:1000000000008031372808007E14803120007F08EE
:10001000F2008B1A0B1D10288C31C224803132283B
:100020000B1A8B1C17288731FB27803132288B193C
:100030000B1C1E288C319C24803132280B1F322847
:100040002100141F2A282000141F2A288D31022580
:10005000803132282100101C32282000101C322848
:100060008C31F62472082000FF007E1009008031D8
:100070003928B83084008D308500C03086000030CB
:1000800087001B308C31BC248031F601F701F80168
:10009000F901FA01413084000030850017308C31BD
:1000A000B6248031A03084000030850020308C31AF
:1000B000B6247E10200086319E2E82302000B500AE
:1000C000DD30890B6128B50B612800322000A001CA
:1000D0002030B5003508A100A0308F311D278031B8
:1000E0002000B600B7013608BE003708BF003E0842
:1000F0003F0403198A28C930A0000030A100003055
:10010000A2009030A3000730A4009030A5008C31ED
:10011000C9248031AA3021002006031DC72A2408E3
:100120002000B500B601210023082000B700B80167
:100130003708B800B70135083707CA003608383D18
:10014000CB00210028082000B500B60121002708B7
:100150002000B700B8013708B800B70135083707E5
:10016000CC003608383DCD0021002C082000B50019
:10017000B60121002B082000B700B8013708B800ED
:10018000B70135083707CE003608383DCF002100CB
:1001900030082000B500B60121002F082000B7006C
:1001A000B8013708B800B70121002D082E0720003C
:1001B000BA00BB01BB0D37083A07BC0038083B3D0D
:1001C000BD0035083C07D20036083D3DD300D401C0
:1001D000D31BD4035408D500210034082000B500F7
:1001E000B601210033082000B700B8013708B80075
:1001F000B70135083707D0003608383DD1006430E4
:10020000A4000030A5004B08A3004A08A200E83073
:10021000A0000330A1008E31BB26803120002108D0
:10022000A7002008A6008E31E8268031200024088F
:10023000303EB50035082100C2000A302000A4007D
:100240000030A5004B08A3004A08A2006430A000BB
:100250000030A1008E31BB26803120002108A7008C
:100260002008A6008E31E826803120002408303E88
:10027000B50035082100C3000A302000A00000307E
:10028000A1004B08A3004A08A2008E31BB26803192
:1002900020002008303EB50035082100C40064303D
:1002A0002000A4000030A5004D08A3004C08A200C7
:1002B000E830A0000330A1008E31BB268031200041
:1002C0002108A7002008A6008E31E82680312000F2
:1002D0002408303EB50035082100C7000A30200050
:1002E000A4000030A5004D08A3004C08A200643013
:1002F000A0000030A1008E31BB26803120002108F3
:10030000A7002008A6008E31E826803120002408AE
:10031000303EB50035082100C8000A302000A0009A
:100320000030A1004D08A3004C08A2008E31BB266E
:10033000803120002008303EB50035082100C9007A
:1003400064302000A4000030A5004F08A3004E0830
:10035000A200E830A0000330A1008E31BB2680311E
:1003600020002108A7002008A6008E31E826803151
:1003700020002408303EB50035082100CC000A30AA
:100380002000A4000030A5004F08A3004E08A200E2
:100390006430A0000030A1008E31BB2680312000E7
:1003A0002108A7002008A6008E31E8268031200011
:1003B0002408303EB50035082100CD000A30200069
:1003C000A0000030A1004F08A3004E08A2008E310B
:1003D000BB26803120002008303EB50035082100C2
:1003E000CE0000302000AB000030AA000030A90091
:1003F0006430A8001130413E86008701403FA400D0
:10040000413FA500423FA600433FA7000030A300A4
:100410000030A2000330A100E830A0008731B827E7
:10042000803120002308AF002208AE002108AD0073
:100430002008AC008F315527803120002808303E3D
:10044000B50035082100D20000302000AB0000309C
:10045000AA000030A9000A30A8001130413E8600F1
:100460008701403FA400413FA500423FA600433F13
:10047000A7000030A3000030A2000030A1006430CB
:10048000A0008731B827803120002308AF00220860
:10049000AE002108AD002008AC008F315527803117
:1004A00020002808303EB50035082100D300003078
:1004B0002000A3000030A2000030A1000A30A000FC
:1004C0001130413E86008701403FA400413FA50016
:1004D000423FA600433FA7008731B8278031200064
:1004E0002008303EB50035082100D40064302000DB
:1004F000A4000030A5005108A3005008A200E83075
:10050000A0000330A1008E31BB26803120002108DD
:10051000A7002008A6008E31E8268031200024089C
:10052000303EB50035082100D7000A302000A40075
:100530000030A5005108A3005008A2006430A000BC
:100540000030A1008E31BB26803120002108A70099
:100550002008A6008E31E826803120002408303E95
:10056000B50035082100D8000A302000A000003076
:10057000A1005108A3005008A2008E31BB26200024
:100580002008303EB50035082100D90008000030B1
:100590002000A000A1002030A2000030A300A03065
:1005A0008D31EF258031AA302000B50035082100BB
:1005B000A000A0302000B5003508A5002030B6000E
:1005C0003608A60000308F31A827803120003E0871
:1005D0003F0403190800F130A0000030A1000030F2
:1005E000A2009030A3000730A4009030A5008C3109
:1005F000C924080064302000A4000030A5004B0886
:10060000A3004A08A200E830A0000330A1008E3108
:10061000BB26823120002108A7002008A6008E31C9
:10062000E826823120002408303EB500350821003C
:10063000C2000A302000A4000030A5004B08A3002F
:100640004A08A2006430A0000030A1008E31BB2611
:10065000823120002108A7002008A6008E31E8265C
:10066000823120002408303EB50035082100C30047
:100670000A302000A0000030A1004B08A3004A0867
:10068000A2008E31BB26823120002008303EB5000A
:1006900035082100C40064302000A4000030A5000B
:1006A0004D08A3004C08A200E830A0000330A100D0
:1006B0008E31BB26823120002108A7002008A60029
:1006C0008E31E826823120002408303EB5003508FE
:1006D0002100C7000A302000A4000030A5004D080A
:1006E000A3004C08A2006430A0000030A1008E31AD
:1006F000BB26823120002108A7002008A6008E31E9
:10070000E826823120002408303EB500350821005B
:10071000C8000A302000A0000030A1004D08A3004E
:100720004C08A2008E31BB26823120002008303ECA
:10073000B50035082100C90064302000A400003055
:10074000A5004F08A3004E08A200E830A000033027
:10075000A1008E31BB26823120002108A70020088D
:10076000A6008E31E826823120002408303EB500F4
:1007700035082100CC000A302000A4000030A5007C
:100780004F08A3004E08A2006430A0000030A10072
:100790008E31BB26823120002108A7002008A60048
:1007A0008E31E826823120002408303EB50035081D
:1007B0002100CD000A302000A0000030A1004F0829
:1007C000A3004E08A2008E31BB26823120002008F3
:1007D000303EB50035082100CE0000302000AB00CF
:1007E0000030AA000030A9006430A8001130413E5A
:1007F00086008701403FA400413FA500423FA6007C
:10080000433FA7000030A3000030A2000330A10046
:10081000E830A0008731B827823120002308AF00DC
:100820002208AE002108AD002008AC008F3155270A
:10083000823120002808303EB50035082100D20062
:1008400000302000AB000030AA000030A9000A30C0
:10085000A8001130413E86008701403FA400413F7F
:10086000A500423FA600433FA7000030A300003090
:10087000A2000030A1006430A0008731B827823187
:1008800020002308AF002208AE002108AD00200898
:10089000AC008F315527823120002808303EB5004A
:1008A00035082100D30000302000A3000030A20052
:1008B0000030A1000A30A0001130413E86008701BF
:1008C000403FA400413FA500423FA600433FA70090
:1008D0008731B827823120002008303EB500350826
:1008E0002100D40064302000A4000030A50051088D
:1008F000A3005008A200E830A0000330A1008E3110
:10090000BB26823120002108A7002008A6008E31D6
:10091000E826823120002408303EB5003508210049
:10092000D7000A302000A4000030A5005108A30021
:100930005008A2006430A0000030A1008E31BB2618
:10094000823120002108A7002008A6008E31E82669
:10095000823120002408303EB50035082100D8003F
:100960000A302000A0000030A1005108A300500868
:10097000A2008E31BB26823120002008303EB50017
:1009800035082100D90020004B08B50035082100AA
:10099000A30020004A08B50035082100A40020006B
:1009A0004D08B50035082100A70020004C08B5000F
:1009B00035082100A80020004F08B50035082100A7
:1009C000AB0020004E08B50035082100AC00200027
:1009D0005208B5005308B6005408B7005508B800CF
:1009E0000830B836B70CB60CB50C890BF12C3508AD
:1009F000B90039082100AF0020005208B5003508C1
:100A00002100B00020005108B50035082100B300D6
:100A100020005008B50035082100B4008B13A03029
:100A20002000B5003508A5002030B6003608A60025
:100A300000308F31A8278B170800200041080319C8
:100A40004208031908004103031D4F2D0130C6075A
:100A50000030C73D0030C83D0030C93D4908031D86
:100A60003A2D4808031D3A2DF53046020130473B28
:100A7000031C0800C401C40AC301C30A0130D00723
:100A80000030D13D0030C9000030C8000030C70040
:100A90000030C600C201C101C501C50A08004203F9
:100AA000031D0800C201C1014908031D6A2D480841
:100AB000031D6A2D4708031D6A2D64304602031882
:100AC0006A2D0030C9000030C8000030C700003077
:100AD000C6000800C501C50A4908031D792D48084C
:100AE000031D792D4708031D792D8D304602031C07
:100AF0009A2D4908031D9A2D4808031D9A2D1B3075
:100B000046020130473B03189A2D0130CC070030D4
:100B1000CD3D0130D2070030D33D0030D43D003010
:100B2000D53D0030C9000030C8000030C70000309B
:100B3000C60008004908031DA62D4808031DA62D60
:100B40001C3046020130473B031CC72D4908031DDA
:100B5000C72D4808031DC72DA83046020130473B6A
:100B60000318C72D0130CE070030CF3D0130D2072A
:100B70000030D33D0030D43D0030D53D0030C900B9
:100B80000030C8000030C7000030C6000800490827
:100B9000031D08004808031D08004708031D08003E
:100BA0008C304602031808000130CA070030CB3DE4
:100BB0000130D2070030D33D0030D43D0030D53D68
:100BC0000030C9000030C8000030C7000030C60047
:100BD0000800750801392000A000A00EA00D220019
:100BE0000D0820002006DF39200622008D00753612
:100BF00001392000A000A00D22000E0820002006D0
:100C0000FD39200622008E0075082000A000023069
:100C1000A036890B082E20080139A100A10DA10DD5
:100C200022000E0820002106FB39210622008E003A
:100C300075082000A0000330A036890B1C2E200868
:100C40000139A100A10DA10DA10D22000E08200067
:100C50002106F739210622008E0075082000A00029
:100C60000430A036890B312E20080139A100A10ED5
:100C700022000E0820002106EF39210622008E00F6
:100C800075082000A0000530A036890B442E2008EE
:100C90000139A100A10EA10D22000E08200021069D
:100CA000DF39210622008E0075082000A0000630E2
:100CB000A036890B582E20080139A100A10EA10DE4
:100CC000A10D22000E0820002106BF3921062200B6
:100CD0008E0075082000A0000730A036890B6D2E0D
:100CE00020080139A100A10CA10C22000E0820004F
:100CF00021067F39210622008E007408803A2000E8
:100D0000A00080302002031D872E01307302031CD7
:100D10008C2E22008D178E2E22008D130D17A630DB
:100D2000890B902E003222000D1307302000A00006
:100D30007D30890B992EA00B992E08008D31492505
:100D400086318E310B26863187313F2786318031BF
:100D50005D2086310030F300F40080302000C000B8
:100D60004008F5008531E9258631C0308E312826CE
:100D7000863182302000C000DD30890BBD2EC00BD3
:100D8000BD2E00320030F300F400C0302000C0005F
:100D90004008F5008531E9258631D0308E3128268E
:100DA00086318B170B1720005708031DD7018C18AD
:100DB000E72E04302000C0003D30890BDD2EC00B33
:100DC000DD2E003220008C18E72EC301C401780804
:100DD0000319052FF801031022000C1E0314031C35
:100DE000F42E22000C16F62E22000C1220004308CE
:100DF000031D052F031022000C1E0314031C032FD8
:100E000022008C16052F22008C127A03031D182F46
:100E1000FA0120004303031D182F031022008C1E2B
:100E20000314031C162F22008C16182F22008C127C
:100E3000200045080319D32EC5018231FA228631DC
:100E40000030F300F40080302000C0004008F500BE
:100E50008531E9258631C0308E3128268631003033
:100E6000F300F400C0302000C0004008F5008531D8
:100E7000E9258631D0308E3128268631D32E2200C6
:100E80000D138D138D128E100E118E110E128E12E7
:100E90000E138E1321302000A2007630890B4E2FC6
:100EA000A20B4E2F00000030F300F4003830200079
:100EB000A2002208F5008531E92587312130200084
:100EC000A2007630890B622FA20B622F0000003047
:100ED000F300F40038302000A2002208F50085312C
:100EE000E925873121302000A2007630890B762F4A
:100EF000A20B762F00000030F300F4003830200001
:100F0000A2002208F5008531E92587312130200033
:100F1000A2007630890B8A2FA20B8A2F00000030A6
:100F2000F300F40038302000A2002208F5008531DB
:100F3000E92587310030F300F4000F302000A200D3
:100F40002208F5008531E92587310030F300F400EF
:100F5000F501F50A8531E92587310030F300F40009
:100F600006302000A2002208F5008531E92508009E
:100F7000200023082204210420040319F22FF40185
:100F8000F40AA31BCF2F0130A035A10DA20DA30D94
:100F9000890BC42F0130F3007308F407C12F230815
:100FA0002702031DDD2F22082602031DDD2F210845
:100FB0002502031DDD2F20082402031CE72F200833
:100FC000A4022108A53B2208A63B2308A73B013029
:100FD000A336A20CA10CA00C890BE82F0130F4025F
:100FE000031DCF2F2708A3002608A2002508A10073
:100FF0002408A00008008B108E316D260800080020
:1019360008000800080074082000D9007308D800C1
:10194600080074082000E3007308E2000800740829
:101956002000DF007308DE00080074082000DB00AA
:101966007308DA000800640080010131890BB72C86
:101976000034FE0012001E00FE0BBD2C00340B11BD
:101986002000640895008D31D3250800F030210031
:101996008E0020000E088E0008006030210099009D
:1019A6009801220096010800230055309600AA30BF
:1019B6009600951400000000080020005E085F04F1
:1019C600031908005F088A005E080A008C310800C7
:1019D6008B10210015179B30F3000C30F4008C316E
:1019E6009E240B160800200010106108F100600804
:1019F600F0008D311C258C318C31E024080020004C
:101A060014135D08F1005C08F0008D312B258D3133
:101A16008D310E25080085311D258D3120005A088F
:101A26005B04031908005B088A005A080A008D3116
:101A360008002000181D262D181071089700700840
:101A460096001814080071089700700896000800A0
:101A56002900151D352D1510710894007008930086
:101A660015140800710894007008930008007408A3
:101A7600230092007308910015131514000000004E
:101A860023001408F4001308F30008008E314926D9
:101A96008D318C31D0248D318D319E258D318C3117
:101AA600EB248D318D3187258D318D315B250800F5
:101AB60021001508C039173895009E302000950082
:101AC6009E30F5007508E4000B118B169D30F3006F
:101AD6000C30F4008C31A424080000308B1B01303C
:101AE600F5008B13740823009200730891001513F8
:101AF600151615158C31D7248D312300151175084F
:101B0600031908008B17080020009901FF30970081
:101B1600FF3096001708E1001608E00010102100BB
:101B260010140330F3000030F4008C31AA24013085
:101B360020009800080029009601EC3094007830C7
:101B4600930014082000DD00290013082000DC00A3
:101B5600141321001417FF30F3000730F4008C3102
:101B6600B024053029009500080053343A34303447
:101B7600303430344D343A343034303430344C34FC
:101B86003A3430343034303400345A343A34303421
:101B96003034303447343A3430343034303400342E
:101BA6000130F0007008FA000130F0007008F90703
:101BB60006307902031CE42DF9010130F0007008AB
:101BC600F8002000620863040319080063088A000D
:101BD60062080A008D310800F4007408F3007308E7
:101BE600F50001302000A2020030A33B220A0319AF
:101BF600230A0319080020002008F3007508860050
:101C06008701730881000130F3007308F507F42D8E
:101C16002000C301C401CE01CF01CC01CD01CA0110
:101C2600CB010030D5000030D4000030D3000030A6
:101C3600D2000030C9000030C8000030C7000030B4
:101C4600C600C201C101C50108002000A300200092
:101C56002308860087010108031908000130F300F4
:101C66000030F4002308860087010108A20022083C
:101C7600F5008531E9258E3101302000A2002208C9
:101C8600A307A630890B452E00322A2E02302200E9
:101C96008C00E0308D00FE308E00053021008C0077
:101CA60010308D0001308E00013023008E00103080
:101CB6008D0011308C0024008D018C018E012100D5
:101CC600951725008C018D018E018B1502303C0085
:101CD600900008000130F00070082000D7002100B5
:101CE600151F7E2E20000C1D7E2EC101C10AC201C9
:101CF60021001513892E2100151B892E20000C1991
:101D0600892EC101C201C20A2100151720005808F8
:101D160059040319080059088A0058080A008E3128
:101D2600080000308B1B0130F3008B1320002108C4
:101D360023009200200020082300910020002308A1
:101D46002300940020002208230093002000240C86
:101D56002300031C95120318951615131512151555
:101D66008C31D7248E317308031908008B170800AD
:101D76002000200821040319E32EF401F40AA11B14
:101D8600CE2E0130A035A10D890BC52E0130F300F2
:101D96007308F407C22E21082302031DD42E20083F
:101DA6002202031CDA2E2008A2022108A33B0130DE
:101DB600A136A00C890BDB2E0130F402031DCE2EBA
:101DC6002308A1002208A00008002000A901AA01FA
:101DD600240825040319182FA801A80AA51BFD2EFF
:101DE6000130A435A50D890BF42E0130F5007508D8
:101DF600A807F12E0130A935AA0D890BFE2E25085C
:101E06002702031D082F24082602031C0F2F24086F
:101E1600A6022508A73B29140130A536A40C890B78
:101E2600102F0130A802031DFD2E2A08A50029083F
:101E3600A40008002000A6002008A200A301053087
:101E4600A235A30D890B232F2208803EA4001F3044
:101E5600233DA500213021020318352F043020022E
:101E6600031C502FFF3008002508F4002408F30057
:101E76008D313A258F3173082000A200260886008E
:101E86008701220881000130A4070030A53D0130FA
:101E9600A2002208A6070130A1022108031D372F40
:101EA6000030080000302000B3000030B2000030DF
:101EB600B1000030B0002B082A04290428040319B5
:101EC6009F2FB401B40AAB1B742F0130A835A90D9E
:101ED600AA0DAB0D890B692F0130F5007508B40703
:101EE600662F0130B035B10DB20DB30D890B752FCC
:101EF6002B082F02031D892F2A082E02031D892F66
:101F060029082D02031D892F28082C02031C942F53
:101F16002808AC022908AD3B2A08AE3B2B08AF3B8C
:101F260030140130AB36AA0CA90CA80C890B952FDE
:101F36000130B402031D742F3308AB003208AA0027
:101F46003108A9003008A80008002000A9002908C7
:101F5600A700A8010530A735A80D890BAE2F2708C5
:101F6600803EAA001F30283DAB0021302602031810
:101F7600080004302902031808002B08F4002A0878
:101F8600F3008D3170258F31023020002602031CAC
:101F9600EC2F20002B08A1002A08A00025088600A7
:101FA60087010108A700A8012708A2002808A300A6
:101FB600A401A40A8E3194268F3101302000A70097
:101FC6002708A5070130AA070030AB3D0130A6025D
:101FD600C72F2B08A1002A08A00025088600870124
:101FE6000108A700A8012708A2002808A300A40149
:101FF6008E3194262300150808006D346134693447
:102006006E342E3463340034303420343D343D3461
:0620160020347234003496
:020000040001F9
:06000E00FC3FFF3F9F3F95
:00000001FF
