:0400000080313728EC
:100008007E14803120007F08F2008B1A0B1D102807
:1000180087311D27803132280B1A8B1C172887310E
:100028004827803132288B190B1C1E2887314F270F
:10003800803132280B1F32282100141F2A28200063
:10004800141F2A288631DD26803132282100101C11
:1000580032282000101C32288631E9267208200038
:10006800FF007E10090080313928F5308400863081
:1000780085005C308600003087000B3087312427EC
:100088008031A130840086308500A03086000030A1
:1000980087001030873124278031F601F701F801F5
:1000A800F901FA01383084000030850017308731B3
:1000B8002A277E1020008331A02B64302000A40062
:1000C8000030A5004208A3004108A200E830A000C3
:1000D8000330A10085317725803120002108A70051
:1000E8002008A60085314225803120002408303EB2
:1000F800B50035082100A2000A302000A400003015
:10010800A5004208A3004108A2006430A000003006
:10011800A10085317725803120002108A70020081B
:10012800A60085314225803120002408303EB500E4
:1001380035082100A3000A302000A0000030A100EB
:100148004208A3004108A2008531772580312000AC
:100158002008303EB50035082100A4006430200096
:10016800A4000030A5004408A3004308A200E8301A
:10017800A0000330A10085317725803120002108B7
:10018800A7002008A60085314225803120002408D8
:10019800303EB50035082100A7000A302000A40031
:1001A8000030A5004408A3004308A2006430A00062
:1001B8000030A10085317725803120002108A70073
:1001C8002008A60085314225803120002408303ED1
:1001D800B50035082100A8000A302000A000003032
:1001E800A1004408A3004308A20085317725803187
:1001F80020002008303EB50035082100A9006430F1
:100208002000A4000030A5004608A3004508A2006D
:10021800E830A0000330A100853177258031200027
:100228002108A7002008A60085314225803120003A
:100238002408303EB50035082100AC000A30200003
:10024800A4000030A5004608A3004508A2006430B9
:10025800A0000030A10085317725803120002108D9
:10026800A7002008A60085314225803120002408F7
:10027800303EB50035082100AD000A302000A0004E
:100288000030A1004608A3004508A2008531772563
:10029800803120002008303EB50035082100AE002E
:1002A80000302000AB000030AA000030A900643004
:1002B800A8001130383E86008701403FA400413F26
:1002C800A500423FA600433FA7000030A30000302E
:1002D800A2000330A100E830A0008431FF2480315F
:1002E80020002308AF002208AE002108AD00200836
:1002F800AC008431AC24803120002808303EB500A1
:100308003508DE000030AB000030AA000030A9003C
:100318000A30A8001130383E86008701403FA4000B
:10032800413FA500423FA600433FA7000030A3007D
:100338000030A2000030A1006430A0008431FF2406
:10034800803120002308AF002208AE002108AD004C
:100358002008AC008431AC24803120002808303ECD
:10036800B5003508DF000030A3000030A2000030DF
:10037800A1000A30A0001130383E86008701403FB6
:10038800A400413FA500423FA600433FA700843197
:10039800FF24803120002008303EB5003508E000F9
:1003A8006430A4000030A5004808A3004708A20054
:1003B800E830A0000330A100853177258031200086
:1003C8002108A7002008A600853142258031200099
:1003D8002408303EB5003508E3000A30A400003098
:1003E800A5004808A3004708A2006430A000003018
:1003F800A10085317725803120002108A700200839
:10040800A60085314225803120002408303EB50001
:100418003508E4000A30A0000030A1004808A30015
:100428004708A2008531772520002008303EB50016
:100438003508E500080020003808031939080319B1
:1004480008003803031D512A0130BD070030BE3DA6
:100458000030BF3D0030C03D4008031D3C2A3F0826
:10046800031D3C2AF5303D0201303E3B031C0800C9
:10047800BB01BB0ABA01BA0A0130C7070030C83D40
:100488000030C0000030BF000030BE000030BD00AA
:10049800B901B801BC01BC0A08003903031D0800F2
:1004A800B901B8014008031D6C2A3F08031D6C2AD6
:1004B8003E08031D6C2A64303D0203186C2A003084
:1004C800C0000030BF000030BE000030BD00080092
:1004D800BC01BC0A4008031D7B2A3F08031D7B2A78
:1004E8003E08031D7B2A8D303D02031C9C2A4008D0
:1004F800031D9C2A3F08031D9C2A1B303D02013026
:100508003E3B03189C2A0130C3070030C43D01302C
:10051800C9070030CA3D0030CB3D0030CC3D00302B
:10052800C0000030BF000030BE000030BD00080031
:100538004008031DA82A3F08031DA82A1C303D02B5
:1005480001303E3B031CC92A4008031DC92A3F0845
:10055800031DC92AA8303D0201303E3B0318C92AB1
:100568000130C5070030C63D0130C9070030CA3D1B
:100578000030CB3D0030CC3D0030C0000030BF0023
:100588000030BE000030BD0008004008031D080010
:100598003F08031D08003E08031D08008C303D027B
:1005A800031808000130C1070030C23D0130C907F7
:1005B8000030CA3D0030CB3D0030CC3D0030C0009B
:1005C8000030BF000030BE000030BD0008007508D4
:1005D80001392000A000A00EA00D22000D08200067
:1005E8002006DF39200622008D00753601392000EB
:1005F800A000A00D22000E0820002006FD392006CC
:1006080022008E0075082000A0000230A036890B59
:100618000A2B20080139A100A10DA10D22000E0806
:1006280020002106FB39210622008E0075082000D3
:10063800A0000330A036890B1E2B20080139A10029
:10064800A10DA10DA10D22000E0820002106F739E9
:10065800210622008E0075082000A0000430A03674
:10066800890B332B20080139A100A10E22000E08A6
:1006780020002106EF39210622008E00750820008F
:10068800A0000530A036890B462B20080139A100AF
:10069800A10EA10D22000E0820002106DF39210637
:1006A80022008E0075082000A0000630A036890BB5
:1006B8005A2B20080139A100A10EA10DA10D22007D
:1006C8000E0820002106BF39210622008E00750879
:1006D8002000A0000730A036890B6F2B20080139B5
:1006E800A100A10CA10C22000E08200021067F39D0
:1006F800210622008E007408803A2000A000803075
:100708002002031D892B01307302031C8E2B22004B
:100718008D17902B22008D130D17A630890B922B65
:10072800003222000D1307302000A0007D30890B15
:100738009B2BA00B9B2B080086318F26833186319B
:10074800102683318431332483318B170B17003003
:10075800F300F40080302000B6003608F50082313E
:10076800EB228331A0308531EF258331033020001F
:10077800B7008A30B6005530890BC02BB60BC02B9A
:10078800B70BC02B00320030F300F400C03020005B
:10079800B6003608F5008231EB2283315C308531B2
:1007A800EF25833120004E08031DCE018C18EA2B5B
:1007B80004302000B6003D30890BE02BB60BE02B4F
:1007C800003220008C18EA2BBA01BB017808031903
:1007D800082CF801031022000C1E0314031CF72B2D
:1007E80022000C16F92B22000C1220003A08031DD7
:1007F800082C031022000C1E0314031C062C2200D4
:100808008C16082C22008C127A03031D1B2CFA016B
:1008180020003A03031D1B2C031022008C1E031416
:10082800031C192C22008C161B2C22008C12200071
:100838003C080319D62BBC0180316120833100307C
:10084800F300F40080302000B6003608F50082314D
:10085800EB228331A0308531EF258331C72B22006D
:100868000D138D138D128E100E118E110E128E1205
:100878000E138E1321302000A2007630890B422CF3
:10088800A20B422C00000030F300F40038302000A6
:10089800A2002208F5008231EB22843121302000A9
:1008A800A2007630890B562CA20B562C0000003083
:1008B800F300F40038302000A2002208F50082314D
:1008C800EB22843121302000A2007630890B6A2C7B
:1008D800A20B6A2C00000030F300F400383020002E
:1008E800A2002208F5008231EB2284312130200059
:1008F800A2007630890B7E2CA20B7E2C00000030E3
:10090800F300F40038302000A2002208F5008231FC
:10091800EB2284310030F300F4000F302000A200F5
:100928002208F5008231EB2284310030F300F40014
:10093800F501F50A8231EB2284310030F300F4002E
:1009480006302000A2002208F5008231EB220800C0
:1009580000302000B3000030B2000030B100003099
:10096800B0002B082A04290428040319F62CB40122
:10097800B40AAB1BCB2C0130A835A90DAA0DAB0DC1
:10098800890BC02C0130F5007508B407BD2C013067
:10099800B035B10DB20DB30D890BCC2C2B082F023D
:1009A800031DE02C2A082E02031DE02C29082D0225
:1009B800031DE02C28082C02031CEB2C2808AC0291
:1009C8002908AD3B2A08AE3B2B08AF3B3014013059
:1009D800AB36AA0CA90CA80C890BEC2C0130B4027C
:1009E800031DCB2C3308AB003208AA003108A9003C
:1009F8003008A8000800200023082204210420044D
:100A08000319392DF401F40AA31B162D0130A03562
:100A1800A10DA20DA30D890B0B2D0130F300730856
:100A2800F407082D23082702031D242D2208260277
:100A3800031D242D21082502031D242D200824022E
:100A4800031C2E2D2008A4022108A53B2208A63B42
:100A58002308A73B0130A336A20CA10CA00C890BDC
:100A68002F2D0130F402031D162D2708A300260898
:100A7800A2002508A1002408A00008002000A90160
:100A8800AA01240825040319722DA801A80AA51B88
:100A9800572D0130A435A50D890B4E2D0130F500D9
:100AA8007508A8074B2D0130A935AA0D890B582DBB
:100AB80025082702031D622D24082602031C692D20
:100AC8002408A6022508A73B29140130A536A40C42
:100AD800890B6A2D0130A802031D572D2A08A5008D
:100AE8002908A400080020002008210403199F2DCC
:100AF800F401F40AA11B8A2D0130A035A10D890B40
:100B0800812D0130F3007308F4077E2D210823029C
:100B1800031D902D20082202031C962D2008A202F6
:100B28002108A33B0130A136A00C890B972D013079
:100B3800F402031D8A2D2308A1002208A000080042
:100B48000130F00070082000CE002100151FB52DDF
:100B580020000C1DB52DB801B80AB90121001513E4
:100B6800C02D2100151BC02D20000C19C02DB80167
:100B7800B901B90A2100151720004F0850040319BC
:100B8800080050088A004F080A0085310800023022
:100B980022008C00E0308D00FE308E0005302100F0
:100BA8008C0010308D0001308E00013023008E0043
:100BB80010308D0011308C0024008D018C018E01C5
:100BC8002100951725008C018D018E018B150230AF
:100BD8003C00900008002000A300200023088600A5
:100BE80087010108031908000130F3000030F40000
:100BF8002308860087010108A2002208F500823137
:100C0800EB22853101302000A2002208A307A6307C
:100C1800890B0C2E0032F12D2000BA01BB01C50151
:100C2800C601C301C401C101C2010030CC000030BB
:100C3800CB000030CA000030C9000030C0000030CE
:100C4800BF000030BE000030BD00B901B801BC01D2
:100C580008000130F0007008FA000130F000700858
:100C6800F90706307902031C3E2EF9010130F00025
:100C78007008F800200059085A04031908005A0897
:100C88008A0059080A008631080029009601EC30CC
:100C980094007830930014082000D4002900130829
:100CA8002000D3001413210014174C30F300073030
:100CB800F40087313027053029009500080020000E
:100CC8009901FF309700FF3096001708D8001608E2
:100CD800D7001010210010144D30F3000730F40035
:100CE80087313627013020009800080021001508B8
:100CF800C039173895009E30200095009E30F500C9
:100D08007508DB000B118B164E30F3000730F4002A
:100D180087313C2708008531CB2586318731162756
:100D280086318631492686318731002786318631DA
:100D38006326863186317A26080053343A343034B3
:100D4800303430344D343A343034303430344C3438
:100D58003A3430343034303400342900151DBB2E79
:100D68001510710894007008930015140800710894
:100D780094007008930008002000181DCA2E18104F
:100D880071089700700896001814080071089700F9
:100D980070089600080082311F2286312000510811
:100DA80052040319080052088A0051080A008631C3
:100DB8000800200014135408F1005308F00086318D
:100DC800B12686318631CF26080020001010580839
:100DD800F1005708F0008631C026863187310B278D
:100DE80008005A343A3430343034303447343A34E2
:100DF80030343034303400348B1021001517503023
:100E0800F3000730F400873142270B160800200052
:100E1800550856040319080056088A0055080A00A0
:100E2800873108006030210099009801220096015E
:100E380008000B1120005B08950086312D2608005C
:100E4800FE0012001E00FE0B252F003464008001F6
:100E58000131890B2B2F003474082000D20073084D
:100E6800D100080074082000D6007308D5000800D7
:100E780074082000DA007308D900080074082000FC
:100E8800D0007308CF0008008B108531A425080016
:0A0E98000800080008000800080028
:020000040001F9
:06000E00FC3FFF3F9F3F95
:00000001FF
