:1000000000008031372808007E14803120007F08EE
:10001000F2008B1A0B1D10288B31D9238031322826
:100020000B1A8B1C17288731FC27803132288B193B
:100030000B1C1E288B31B223803132280B1F322833
:100040002100141F2A282000141F2A288C3119246B
:10005000803132282100101C32282000101C322848
:100060008C310D2472082000FF007E1009008031C1
:1000700039288B3084008D308500A0308600003018
:10008000870026308B31D3238031243084008D309B
:100090008500203086000130870021308B31D3234A
:1000A0008031F601F701F801F901FA0142308400CC
:1000B000003085001C308B31CD238031C630840068
:1000C0000030850020308B31CD237E10200085311B
:1000D000292D82302000B500DD30890B6D28B50B4D
:1000E0006D2800322000A0012030B5003508A100A5
:1000F000C6308E31612680312000B600B701360847
:10010000BE003708BF003E083F0403199628D230CE
:10011000A0000030A1000030A2009030A300073002
:10012000A4009030A5008B31E0238031AA3021005B
:100130004606031DD32A4A082000B500B601210057
:1001400049082000B700B8013708B800B7013508E2
:100150003707CB003608383DCC0021004E08200080
:10016000B500B60121004D082000B700B8013708DE
:10017000B800B70135083707CD003608383DCE0046
:10018000210052082000B500B601210051082000CE
:10019000B700B8013708B800B70135083707CF00F6
:1001A0003608383DD000210056082000B500B601C1
:1001B000210055082000B700B8013708B800B70182
:1001C0002100530854072000BA00BB01BB0D3708BB
:1001D0003A07BC0038083B3DBD0035083C07D3005A
:1001E00036083D3DD400D501D41BD5035508D600B3
:1001F00021005A082000B500B6012100590820004E
:10020000B700B8013708B800B70135083707D10083
:100210003608383DD2006430A4000030A5004C08F8
:10022000A3004B08A200E830A0000330A1008D31EC
:10023000FF25803120002108A7002008A6008E316C
:100240002C26803120002408303EB50035082100DE
:10025000A2000A302000A4000030A5004C08A30032
:100260004B08A2006430A0000030A1008D31FF25B2
:10027000803120002108A7002008A6008E312C26FE
:10028000803120002408303EB50035082100A3004D
:100290000A302000A0000030A1004C08A3004B0849
:1002A000A2008D31FF25803120002008303EB500AE
:1002B00035082100A40064302000A4000030A5000F
:1002C0004E08A3004D08A200E830A0000330A100B2
:1002D0008D31FF25803120002108A7002008A600CD
:1002E0008E312C26803120002408303EB5003508A0
:1002F0002100A7000A302000A4000030A5004E080D
:10030000A3004D08A2006430A0000030A1008D3190
:10031000FF25803120002108A7002008A6008E318B
:100320002C26803120002408303EB50035082100FD
:10033000A8000A302000A0000030A1004E08A30051
:100340004D08A2008D31FF25803120002008303E6D
:10035000B50035082100A90064302000A400003059
:10036000A5005008A3004F08A200E830A000033009
:10037000A1008D31FF25803120002108A700200831
:10038000A6008E312C26803120002408303EB50096
:1003900035082100AC000A302000A4000030A50080
:1003A0005008A3004F08A2006430A0000030A10054
:1003B0008D31FF25803120002108A7002008A600EC
:1003C0008E312C26803120002408303EB5003508BF
:1003D0002100AD000A302000A0000030A10050082C
:1003E000A3004F08A2008D31FF2580312000200896
:1003F000303EB50035082100AE0000302000AB00D3
:100400000030AA000030A9006430A8001130423E3C
:1004100086008701403FA400413FA500423FA6005F
:10042000433FA7000030A3000030A2000330A1002A
:10043000E830A0008E319926803120002308AF00DB
:100440002208AE002108AD002008AC008E31DC2669
:10045000803120002808303EB50035082100BD005D
:1004600000302000AB000030AA000030A9000A30A4
:10047000A8001130423E86008701403FA400413F62
:10048000A500423FA600433FA7000030A300003074
:10049000A2000030A1006430A0008E319926803186
:1004A00020002308AF002208AE002108AD0020087C
:1004B000AC008E31DC26803120002808303EB500AB
:1004C00035082100BE0000302000A3000030A2004B
:1004D0000030A1000A30A0001130423E86008701A2
:1004E000403FA400413FA500423FA600433FA70074
:1004F0008E319926803120002008303EB500350825
:100500002100BF0064302000A4000030A500520884
:10051000A3005108A200E830A0000330A1008D31F3
:10052000FF25803120002108A7002008A6008E3179
:100530002C26803120002408303EB50035082100EB
:10054000C2000A302000A4000030A5005208A30019
:100550005108A2006430A0000030A1008D31FF25B9
:10056000803120002108A7002008A6008E312C260B
:10057000803120002408303EB50035082100C3003A
:100580000A302000A0000030A1005208A30051084A
:10059000A2008D31FF2520002008303EB50035082F
:1005A0002100C400080000302000A000A10020307D
:1005B000A2000030A300C6308C31EB248031AA3079
:1005C0002000B50035082100C600C6302000B50067
:1005D0003508A5002030B6003608A60000308F315F
:1005E0002F27803120003E083F0403190800FA300D
:1005F000A0000030A1000030A2009030A30007301E
:10060000A4009030A5008B31E02308006430200066
:10061000A4000030A5004C08A3004B08A200E8305D
:10062000A0000330A1008D31FF2583312000210877
:10063000A7002008A6008E312C2683312000240834
:10064000303EB50035082100A2000A302000A40089
:100650000030A5004C08A3004B08A2006430A000A5
:100660000030A1008D31FF25833120002108A70033
:100670002008A6008E312C26833120002408303E2D
:10068000B50035082100A3000A302000A00000308A
:10069000A1004C08A3004B08A2008D31FF25833137
:1006A00020002008303EB50035082100A400643049
:1006B0002000A4000030A5004E08A3004D08A200B1
:1006C000E830A0000330A1008D31FF2583312000E8
:1006D0002108A7002008A6008E312C268331200097
:1006E0002408303EB50035082100A7000A3020005C
:1006F000A4000030A5004E08A3004D08A2006430FD
:10070000A0000030A1008D31FF2583312000210899
:10071000A7002008A6008E312C2683312000240853
:10072000303EB50035082100A8000A302000A000A6
:100730000030A1004E08A3004D08A2008D31FF2516
:10074000833120002008303EB50035082100A90083
:1007500064302000A4000030A5005008A3004F081A
:10076000A200E830A0000330A1008D31FF258331C5
:1007700020002108A7002008A6008E312C268331F6
:1007800020002408303EB50035082100AC000A30B6
:100790002000A4000030A5005008A3004F08A200CC
:1007A0006430A0000030A1008D31FF25833120008E
:1007B0002108A7002008A6008E312C2683312000B6
:1007C0002408303EB50035082100AD000A30200075
:1007D000A0000030A1005008A3004F08A2008D31F6
:1007E000FF25833120002008303EB5003508210068
:1007F000AE0000302000AB000030AA000030A9009D
:100800006430A8001130423E86008701403FA400BA
:10081000413FA500423FA600433FA7000030A30090
:100820000030A2000330A100E830A0008E319926EC
:10083000833120002308AF002208AE002108AD005C
:100840002008AC008E31DC26833120002808303EA1
:10085000B50035082100BD0000302000AB0000309D
:10086000AA000030A9000A30A8001130423E8600DC
:100870008701403FA400413FA500423FA600433FFF
:10088000A7000030A3000030A2000030A1006430B7
:10089000A0008E319926833120002308AF00220862
:1008A000AE002108AD002008AC008E31DC2683317B
:1008B00020002808303EB50035082100BE00003079
:1008C0002000A3000030A2000030A1000A30A000E8
:1008D0001130423E86008701403FA400413FA50001
:1008E000423FA600433FA7008E3199268331200066
:1008F0002008303EB50035082100BF0064302000DC
:10090000A4000030A5005208A3005108A200E8305E
:10091000A0000330A1008D31FF2583312000210884
:10092000A7002008A6008E312C2683312000240841
:10093000303EB50035082100C2000A302000A40076
:100940000030A5005208A3005108A2006430A000A6
:100950000030A1008D31FF25833120002108A70040
:100960002008A6008E312C26833120002408303E3A
:10097000B50035082100C3000A302000A000003077
:10098000A1005208A3005108A2008D31FF25833138
:1009900020002008303EB50035082100C4002000AA
:1009A0004C08B50035082100C90020004B08B500EF
:1009B00035082100CA0020004E08B5003508210086
:1009C000CD0020004D08B50035082100CE002000E4
:1009D0005008B50035082100D10020004F08B500AF
:1009E00035082100D20020005308B5005408B60095
:1009F0005508B7005608B8000830B836B70CB60C22
:100A0000B50C890BFD2C3508B90039082100D5003B
:100A100020005308B50035082100D60020005208F8
:100A2000B50035082100D90020005108B50035086F
:100A30002100DA008B13C6302000B5003508A50070
:100A40002030B6003608A60000308F312F278B17D4
:100A500008008C31602485318D31072585318F3137
:100A6000872785318031692085310030F300F4001B
:100A700080302000C0004008F500873147278531CD
:100A8000A0302000A2000030A3008D314525853123
:100A900082302000C000DD30890B4C2DC00B4C2D66
:100AA00000320030F300F400C0302000C0004008E5
:100AB000F500873147278531BB302000A200003088
:100AC000A3008D31452585318B170B1720005D085C
:100AD000031DDD018C18BB2D04302000C0003D300B
:100AE000890B702DC00B702D003220008C18C32D87
:100AF0000130D7070030D83D0030D93D0030DA3D15
:100B00005A08031D8C2D5908031D8C2D593057028E
:100B10000230583B031CB72D0130C0004008DB00F9
:100B20000030DA000030D9000030D8000030D700A3
:100B30000030F300F4008030C0004008F500873139
:100B40004727853120302000A2000130A3008D31DD
:100B50004525853103302000C1008A30C000553062
:100B6000890BB02DC00BB02DC10BB02D0032200071
:100B7000C401C501C32D0030DA000030D9000030B7
:100B8000D8000030D7008C1C1B2E5B03031D1B2ECE
:100B9000DB010030A000A1002030A2000030A30043
:100BA000C6308C31EB248531AA302000C0004008CB
:100BB0002100C6008B13C6302000C0004008A500ED
:100BC0002030C1004108A60000308F312F27853129
:100BD0008B170030F300F40080302000C000400884
:100BE000F50087314727853132302000A2000130DF
:100BF000A3008D31452585310030F300F400C0306D
:100C00002000C0004008F500873147278531B0300B
:100C10002000A2000030A3008D314525853103302E
:100C20002000C1000830C0007730890B152EC00BA2
:100C3000152EC10B152E78080319392EF801031053
:100C400022000C1E0314031C282E22000C162A2E30
:100C500022000C1220004408031D392E031022002C
:100C60000C1E0314031C372E22008C16392E220072
:100C70008C127A03031D4C2EFA0120004403031D3D
:100C80004C2E031022008C1E0314031C4A2E22003B
:100C90008C164C2E22008C12200046080319662D5B
:100CA000C6018331062385310030F300F400803023
:100CB0002000C0004008F500873147278531A0306B
:100CC0002000A2000030A3008D3145258531003081
:100CD000F300F400C0302000C0004008F500873168
:100CE00047278531BB302000A2000030A3008D31A2
:100CF00045258531662D2000420803194308031954
:100D000008004203031DAD2E0130C7070030C83D67
:100D10000030C93D0030CA3D4A08031D982E4908DD
:100D2000031D982EF53047020130483B031C080094
:100D3000C501C50AC401C40A0130D1070030D23D43
:100D40000030CA000030C9000030C8000030C700C1
:100D5000C301C201C601C60A08004303031D0800FF
:100D6000C301C2014A08031DC82E4908031DC82E2D
:100D70004808031DC82E643047020318C82E0030EF
:100D8000CA000030C9000030C8000030C7000800A9
:100D9000C601C60A4A08031DD72E4908031DD72ECF
:100DA0004808031DD72E8D304702031CF82E4A0831
:100DB000031DF82E4908031DF82E1B304702013091
:100DC000483B0318F82E0130CD070030CE3D0130EE
:100DD000D3070030D43D0030D53D0030D63D003043
:100DE000CA000030C9000030C8000030C700080049
:100DF0004A08031D042F4908031D042F1C30470215
:100E00000130483B031C252F4A08031D252F4908A4
:100E1000031D252FA83047020130483B0318252F1A
:100E20000130CF070030D03D0130D3070030D43D32
:100E30000030D53D0030D63D0030CA000030C9003A
:100E40000030C8000030C70008004A08031D080031
:100E50004908031D08004808031D08008C3047029C
:100E6000031808000130CB070030CC3D0130D30718
:100E70000030D43D0030D53D0030D63D0030CA00B2
:100E80000030C9000030C8000030C70008007508F5
:100E900001392000A000A00EA00D22000D082000A6
:100EA0002006DF39200622008D007536013920002A
:100EB000A000A00D22000E0820002006FD3920060B
:100EC00022008E0075082000A0000230A036890B99
:100ED000662F20080139A100A10DA10D22000E08E6
:100EE00020002106FB39210622008E007508200013
:100EF000A0000330A036890B7A2F20080139A10009
:100F0000A10DA10DA10D22000E0820002106F73928
:100F1000210622008E0075082000A0000430A036B3
:100F2000890B8F2F20080139A100A10E22000E0885
:100F300020002106EF39210622008E0075082000CE
:100F4000A0000530A036890BA22F20080139A1008E
:100F5000A10EA10D22000E0820002106DF39210676
:100F600022008E0075082000A0000630A036890BF4
:100F7000B62F20080139A100A10EA10DA10D22005C
:100F80000E0820002106BF39210622008E007508B8
:100F90002000A0000730A036890BCB2F2008013994
:100FA000A100A10CA10C22000E08200021067F390F
:100FB000210622008E007408803A2000A0008030B4
:100FC0002002031DE52F01307302031CEA2F2200CB
:100FD0008D17EC2F22008D130D17A630890BEE2FE5
:100FE000003222000D1307302000A0007D30890B55
:100FF000F72FA00BF72F08008B108D31B1250800BB
:10176200080008000800080074082100E700730858
:10177200E600080074082000E7007308E60008008D
:1017820074082000E3007308E200080074082000D7
:10179200DF007308DE000800640080010131890B5C
:1017A200CE2B0034FE0012001E00FE0BD42B0034A0
:1017B2000B112000680895008C31CF240800F0300E
:1017C20021008E0020000E088E00080060302100EB
:1017D20099009801220096010800230055309600D6
:1017E200AA3096009514000000000800200062084C
:1017F20063040319080063088A0062080A008C3136
:1018020008008B1021001513B130F3000B30F400E7
:101812008B31B5230B160800200010106508F1006B
:101822006408F0008C3133248C318B31F7230800AB
:10183200200014136108F1006008F0008C3142248A
:101842008C318C312524080086317B268C31200096
:101852005E085F04031908005F088A005E080A0038
:101862008C3108002000181D3D2C181071089700BB
:101872007008960018140800710897007008960006
:1018820008002900151D4C2C1510710894007008D1
:101892009300151408007108940070089300080062
:1018A20074082300920073089100151315140000A8
:1018B200000023001408F4001308F30008008D311F
:1018C20067258C318B31E7238C318C31B5248C31F7
:1018D2008C3102248C318C319E248C318C317224D7
:1018E200080021001508C039173895009E302000E5
:1018F20095009E30F5007508E8000B118B16B33089
:10190200F3000B30F4008B31BB23080000308B1B3B
:101912000130F5008B1374082300920073089100C4
:101922001513151615158B31EE238C312300151165
:101932007508031908008B17080020009901FF3071
:101942009700FF3096001708E5001608E400101013
:1019520021001014B430F3000B30F4008B31C1239A
:10196200013020009800080029009601EC30940014
:101972007830930014082000E100290013082000A9
:10198200E0001413210014170330F3000030F400B8
:101992008B31C72305302900950008000130F00083
:1019A2007008FA000130F0007008F9070630790279
:1019B200031CE02CF9010130F0007008F80020004F
:1019C200660867040319080067088A0066080A00A7
:1019D2008C310800F5007508F3007308F40001303B
:1019E2002000A2020030A33B220A0319230A031992
:1019F200080020002008F30074088600870173089D
:101A020081000130F3007308F407F02C2000C401B8
:101A1200C501CF01D001CD01CE01CB01CC010030F7
:101A2200D6000030D5000030D4000030D3000030A2
:101A3200CA000030C9000030C8000030C700C3012E
:101A4200C201C601080043346C3465346134723417
:101A520069346E346734203444346134743461340C
:101A620020342E342E342E34003444346134743411
:101A72006134203463346C346534613472346934D3
:101A82006E34673420340034200022088600230894
:101A920087000108031908000130F3000030F40048
:101AA200200022088600230887000108A4002408D9
:101AB200F500873147278D3101302000A207003021
:101AC200A33DA630890B632D0032452D0230220042
:101AD2008C00E0308D00FE308E00053021008C003D
:101AE20010308D0001308E00013023008E00103046
:101AF2008D0011308C0024008D018C018E0121009B
:101B0200951725008C018D018E018B1502303C004A
:101B12009000080053343A343034303430344D3489
:101B22003A343034303430344C343A343034303463
:101B32003034003463346F346D3470346C34653453
:101B4200743465346434203400345A343A343034D2
:101B52003034303447343A34303430343034003472
:101B62000130F00070082000DD002100151BC22D9D
:101B720020000C19C22DC201C20AC301210015178F
:101B8200CD2D2100151FCD2D20000C1DCD2DC20104
:101B9200C301C30A21001513210066086704031953
:101BA200080067088A0066080A008D3108000030C4
:101BB2008B1B0130F3008B132000210823009200BD
:101BC2002000200823009100200023082300940015
:101BD20020002208230093002000240C2300031C71
:101BE2009512031895161513151215158B31EE2340
:101BF2008D317308031908008B1708002000200894
:101C020021040319272EF401F40AA11B122E01301C
:101C1200A035A10D890B092E0130F3007308F407DA
:101C2200062E21082302031D182E20082202031C5F
:101C32001E2E2008A2022108A33B0130A136A00CCF
:101C4200890B1F2E0130F402031D122E2308A1005E
:101C52002208A00008002000A901AA0124082504E6
:101C620003195C2EA801A80AA51B412E0130A43538
:101C7200A50D890B382E0130F5007508A807352E01
:101C82000130A935AA0D890B422E25082702031D12
:101C92004C2E24082602031C532E2408A6022508D3
:101CA200A73B29140130A536A40C890B542E013010
:101CB200A802031D412E2A08A5002908A400080035
:101CC2002000A6002008A200A3010530A235A30D22
:101CD200890B672E2208803EA4001F30233DA500F9
:101CE200213021020318792E04302002031C942E85
:101CF200FF3008002508F4002408F3008C31512439
:101D02008E3173082000A20026088600870122086F
:101D120081000130A4070030A53D0130A200220855
:101D2200A6070130A1022108031D7B2E0030080006
:101D3200200023082204210420040319D32EF401D5
:101D4200F40AA31BB02E0130A035A10DA20DA30DE4
:101D5200890BA52E0130F3007308F407A22E230885
:101D62002702031DBE2E22082602031DBE2E2108B5
:101D72002502031DBE2E20082402031CC82E2008A3
:101D8200A4022108A53B2208A63B2308A73B013059
:101D9200A336A20CA10CA00C890BC92E0130F402AF
:101DA200031DB02E2708A3002608A2002508A100C3
:101DB2002408A000080000302000B3000030B20068
:101DC2000030B1000030B0002B082A042904280496
:101DD2000319262FB401B40AAB1BFB2E0130A83520
:101DE200A90DAA0DAB0D890BF02E0130F500750877
:101DF200B407ED2E0130B035B10DB20DB30D890B24
:101E0200FC2E2B082F02031D102F2A082E02031D61
:101E1200102F29082D02031D102F28082C02031C45
:101E22001B2F2808AC022908AD3B2A08AE3B2B0821
:101E3200AF3B30140130AB36AA0CA90CA80C890BAD
:101E42001C2F0130B402031DFB2E3308AB003208F5
:101E5200AA003108A9003008A80008002000A90043
:101E62002908A700A8010530A735A80D890B352F31
:101E72002708803EAA001F30283DAB0021302602F1
:101E82000318080004302902031808002B08F40084
:101E92002A08F3008C3187248F3102302000260279
:101EA200031C732F20002B08A1002A08A00025087C
:101EB200860087010108A700A8012708A2002808B8
:101EC200A300A401A40A8D31D8258F31013020004E
:101ED200A7002708A5070130AA070030AB3D013053
:101EE200A6024E2F2B08A1002A08A0002508860072
:101EF20087010108A700A8012708A2002808A3005B
:101F0200A4018D31D82523001508080022000D13E5
:101F12008D138D128E100E118E110E128E120E1343
:101F22008E1321302000A2007630890B962FA20B4F
:101F3200962F00000030F300F40038302000A20099
:101F42002208F500873147278F3121302000A20077
:101F52007630890BAA2FA20BAA2F00000030F300C3
:101F6200F40038302000A2002208F500873147270C
:101F72008F3121302000A2007630890BBE2FA20BB8
:101F8200BE2F00000030F300F40038302000A20021
:101F92002208F500873147278F3121302000A20027
:101FA2007630890BD22FA20BD22F00000030F30023
:101FB200F40038302000A2002208F50087314727BC
:101FC2008F310030F300F4000F302000A20022080D
:101FD200F500873147278F310030F300F400F50117
:101FE200F50A873147278F310030F300F4000630BD
:101FF2002000A2002208F5008731472708006D342F
:10200200613469346E342E34633400343034203415
:0A2012003D343D34203472340034B4
:020000040001F9
:06000E00FC3FFF3F9F3F95
:00000001FF
