:0400000080313028F3
:100008007E14803120007F08F2008B1A0B1D102807
:100018008531DF2580312B280B1A8B1C1728863158
:100028000A2680312B280B1F2B282100141F232878
:100038002000141F23288531AA2580312B28210070
:10004800101C2B282000101C2B288531B62572087F
:100058002000FF007E10090080313228F63084002D
:100068008430850020308600003087001B308531C1
:10007800E6258031BC30840084308500A0308600BD
:10008800003087001E308531E6258031F601F70102
:10009800F801F901FA013B30840000308500113085
:1000A8008531EC257E1020008231012A6430200041
:1000B800D0000030D1004508CF004408CE00E83019
:1000C800CC000330CD0084312424803120004D0839
:1000D800D3004C08D2008331EF2380312000500830
:1000E800303ED7005708A2000A30D0000030D100B7
:1000F8004508CF004408CE006430CC000030CD0065
:1001080084312424803120004D08D3004C08D200CB
:100118008331EF23803120005008303ED700570844
:10012800A3000A30CC000030CD004508CF004408B9
:10013800CE0084312424803120004C08303ED70082
:100148005708A4006430D0000030D1004708CF0021
:100158004608CE00E830CC000330CD00843124249A
:10016800803120004D08D3004C08D2008331EF23A2
:10017800803120005008303ED7005708A7000A30C9
:10018800D0000030D1004708CF004608CE006430C8
:10019800CC000030CD0084312424803120004D086B
:1001A800D3004C08D2008331EF238031200050085F
:1001B800303ED7005708A8000A30CC000030CD00E8
:1001C8004708CF004608CE0084312424803120001F
:1001D8004C08303ED7005708A9006430D0000030E2
:1001E800D1004908CF004808CE00E830CC000330E1
:1001F800CD0084312424803120004D08D3004C08E0
:10020800D2008331EF23803120005008303ED700E0
:100218005708AC000A30D0000030D1004908CF00A0
:100228004808CE006430CC000030CD00843124244E
:10023800803120004D08D3004C08D2008331EF23D1
:10024800803120005008303ED7005708AD000A30F2
:10025800CC000030CD004908CF004808CE008431DA
:10026800242420004C08303ED7005708AE00080070
:1002780020003B0803193C08031908003B03031D31
:100288006A290130C0070030C13D0030C23D00304E
:10029800C33D4308031D59294208031D5929353018
:1002A80040022130413B031C0800BE01BE0ABD01CB
:1002B800BD0A0030C3000030C2000030C100003069
:1002C800C000BC01BB01BF01BF0A08003C03031DFD
:1002D8000800BC01BB014308031D85294208031D12
:1002E80085294108031D85290A30400203188529FC
:1002F8000030C3000030C2000030C1000030C00030
:100308000800BF01BF0A4308031D93294208031DC3
:100318009329DD3040020530413B031C9E29BD0175
:10032800BD0A0030C3000030C2000030C1000030F8
:10033800C00008004308031DAA294208031DAA2972
:10034800F53040020130413B031CC3294308031D1B
:10035800C3294208031DC3291A3040020430413B17
:100368000318C3290130C6070030C73D0030C30059
:100378000030C2000030C1000030C000080043084F
:10038800031DCF294208031DCF291B30400204302A
:10039800413B031CE8294308031DE8294208031DC3
:1003A800E829DC3040020530413B0318E8290130D8
:1003B800C8070030C93D0030C3000030C20000301B
:1003C800C1000030C00008004308031D08004208AF
:1003D800031D0800F43040020130413B03180800B7
:1003E8000130C4070030C53D0030C3000030C200F2
:1003F8000030C1000030C000080085316C25823112
:100408008531422582318331762382318B170B1750
:100418000030F300F40080302000D8005808F500C0
:100428008231C1228231203084319B2482310330D1
:100438002000D9008A30D8005530890B212AD80BE2
:10044800212AD90B212A00320030F300F400C030F1
:100458002000D8005808F5008231C122823130309E
:1004680084319B24823121008C1420004B08031D09
:10047800CB0122008C184F2A04302000D8003D30D0
:10048800890B442AD80B442A003222008C184F2AA0
:100498002000BD01BE01780803196D2AF801031078
:1004A80022000C1E0314031C5C2A22000C165E2A70
:1004B80022000C1220003D08031D6D2A03102200A3
:1004C8000C1E0314031C6B2A22008C166D2A2200B2
:1004D8008C127A03031D802AFA0120003D03031DB4
:1004E800802A031022008C1E0314031C7E2A22007B
:1004F8008C16802A22008C1220003F080319392A02
:10050800BF0180315A2082310030F300F40080307E
:100518002000D8005808F5008231C12282312030ED
:1005280084319B2482310030F300F400C030200075
:10053800D8005808F5008231C122823120003D08D8
:10054800031DAD2A3E08031DAD2A303084319B249B
:10055800823120003D03031DB82A3E08031DB82A36
:10056800B23084319B24823120003E03031D392A96
:10057800A03084319B248231392A75080139200042
:10058800CC00CC0ECC0D22000D0820004C06DF3923
:100598004C0622008D00753601392000CC00CC0DA8
:1005A80022000E0820004C06FD394C0622008E0061
:1005B80075082000CC000230CC36890BE02A4C08A4
:1005C8000139CD00CD0DCD0D22000E0820004D06BD
:1005D800FB394D0622008E0075082000CC00033040
:1005E800CC36890BF42A4C080139CD00CD0DCD0D40
:1005F800CD0D22000E0820004D06F7394D062200C9
:100608008E0075082000CC000430CC36890B092BED
:100618004C080139CD00CD0E22000E0820004D06F1
:10062800EF394D0622008E0075082000CC000530F9
:10063800CC36890B1C2B4C080139CD00CD0ECD0DC5
:1006480022000E0820004D06DF394D0622008E00DC
:1006580075082000CC000630CC36890B302B4C08AE
:100668000139CD00CD0ECD0DCD0D22000E08200094
:100678004D06BF394D0622008E0075082000CC00BB
:100688000730CC36890B452B4C080139CD00CD0CF1
:10069800CD0C22000E0820004D067F394D062200A1
:1006A8008E007408803A2000CC0080304C02031D74
:1006B8005F2B01307302031C642B22008D17662BFD
:1006C80022008D130D17A630890B682B00322200EB
:1006D8000D1307302000CC007D30890B712BCC0B1B
:1006E800712B080022000D138D138D128E100E1120
:1006F8008E110E128E120E138E1321302000CE0092
:100708007630890B852BCE0B852B00000030F3004B
:10071800F40038302000CE004E08F5008231C122A6
:10072800833121302000CE007630890B992BCE0BF7
:10073800992B00000030F300F40038302000CE0080
:100748004E08F5008231C122833121302000CE00CD
:100758007630890BAD2BCE0BAD2B00000030F300AB
:10076800F40038302000CE004E08F5008231C12256
:10077800833121302000CE007630890BC12BCE0B7F
:10078800C12B00000030F300F40038302000CE0008
:100798004E08F5008231C12283310030F300F400A5
:1007A8000F302000CE004E08F5008231C12283317F
:1007B8000030F300F400F501F50A8231C1228331DB
:1007C8000030F300F40006302000CE004E08F5009B
:1007D8008231C12208002000D501D60150085104F9
:1007E80003191F2CD401D40AD11B042C0130D03595
:1007F800D10D890BFB2B0130F5007508D407F82BB8
:100808000130D535D60D890B052C51085302031D2F
:100818000F2C50085202031C162C5008D202510803
:10082800D33B55140130D136D00C890B172C01302D
:10083800D402031D042C5608D1005508D000080026
:1008480020004C084D0403194C2CF401F40ACD1B6C
:10085800372C0130CC35CD0D890B2E2C0130F3000F
:100868007308F4072B2C4D084F02031D3D2C4C0830
:100878004E02031C432C4C08CE024D08CF3B0130DE
:10088800CD36CC0C890B442C0130F402031D372CD7
:100898004F08CD004E08CC0008000130F000700869
:1008A8002000CB002100151F622C20000C1D622C9B
:1008B800BB01BB0ABC01210015136D2C2100151BBF
:1008C8006D2C20000C196D2CBB01BC01BC0A210049
:1008D800151720005A085B04031908005B088A00F2
:1008E8005A080A0084310800023022008C00E030E7
:1008F8008D00FE308E00073021008C0010308D00F6
:1009080001308E00013023008E0010308D00113030
:100918008C0024008D018C018E0121009517250083
:100928008C018D018E0102303C00900008002000EF
:10093800CF0020004F08860087010108031908002E
:100948000130F3000030F4004F08860087010108E9
:10095800CE004E08F5008231C122843101302000DA
:10096800CE004E08CF07A630890BB82C00329D2C3C
:10097800533474346134743465343A344A346134E9
:100988006D3420342634203441346C34613472346C
:100998006D340034533474346134743465343A3407
:1009A80041346C34613472346D3400340130F000F9
:1009B8007008FA000130F0007008F9070630790273
:1009C800031CEB2CF9010130F0007008F80020003E
:1009D800640865040319080065088A0064080A00A9
:1009E8008431080053343A342034203420344D34D0
:1009F8003A342034203420344C343A3420342034EF
:100A080020340034533474346134743465343A34E3
:100A18005334613466346534003429009601EC306F
:100A280094007830930014082000DF002900130890
:100A38002000DE001413210014170E30F3000630D6
:100A4800F4008531F22505302900950008002000C2
:100A58009901FF309700FF3096001708E300160849
:100A6800E2001010210010140F30F3000630F400DB
:100A78008531F82501302000980008002000BD01CC
:100A8800BE01C801C901C601C701C401C5010030C2
:100A9800C3000030C2000030C1000030C000BC01FB
:100AA800BB01BF01080021001508C039173895009F
:100AB8009E30200095009E30F5007508E6000B1169
:100AC8008B161030F3000630F4008531FE2508003F
:100AD8008431782485318531D825853185311125B2
:100AE800853185312B2585318531C2258531853183
:100AF800572508002900151D882D15107108940028
:100B08007008930015140800710894007008930089
:100B180008002000181D972D1810710897007008FC
:100B280096001814080071089700700896000800CD
:100B380081313C21853120005C085D0403190800DF
:100B48005D088A005C080A0085310800200014133B
:100B58005F08F1005E08F00085317E25853185311A
:100B68009C250800200010106308F1006208F000BE
:100B780085318D2585318531CD2508008B102100E3
:100B880015171130F3000630F400863104260B16D1
:100B980008002000600861040319080061088A0041
:100BA80060080A008531080060302100990098012A
:100BB8002200960108000B11200066089500843178
:100BC800DA240800FE0012001E00FE0BE72D003498
:100BD800640080010131890BED2D00347408200078
:100BE800DD007308DC00080074082000E1007308C9
:100BF800E000080074082000E5007308E40008001D
:100C080074082000DB007308DA0008008B108431B8
:0C0C180051240800080008000800080033
:020000040001F9
:06000E00FC3FFF3F9F3F95
:00000001FF
