:0400000080313028F3
:100008007E14803120007F08F8008B1A0B1D102801
:1000180081317E2180312B280B1A8B1C17288131C6
:10002800A32180312B280B1F2B282100141F2328E4
:100038002000141F23288131492180312B282100D9
:10004800101C2B282000101C2B28813155217808E2
:100058002000FF007E10090080313228F001F101F4
:10006800F201F301F401F50120308400003085002D
:100078000E30813185217E10200080314328813166
:100088000D2180318B170B1772080319572803109D
:1000980022000C1E0314031C542822000C16562898
:1000A80022000C12F201730803194828F301031007
:1000B80022008C1E0314031C642822008C16482876
:1000C80022008C124828023022008C00E0308D007B
:1000D800FE308E00073021008C0010308D0001307A
:1000E8008E00013023008E0010308D0011308C00FE
:1000F80024008D018C018E012100951725008C01AB
:100108008D018E0102303C00900008000130F6009D
:100118007608F2002100151F98280130F6007608AD
:10012800F100F00115139E28F1010130F600760860
:10013800F000151720002E082F04031908002F08B7
:100148008A002E080A00803108000130F60076087F
:10015800F5000130F6007608F40706307402031C37
:10016800BA28F4010130F6007608F30020003808B8
:1001780039040319080039088A0038080A00803150
:10018800080029009601EC30940078309300140898
:100198002000B300290013082000B2001413210026
:1001A8001417A7302000BA000130BB0081318B2121
:1001B800053029009500080020009901FF309700BC
:1001C800FF3096001708B7001608B6001010210077
:1001D8001014A8302000BA000130BB0081319121F1
:1001E800013020009800080021001508C039173890
:1001F80095009E30200095009E30F9007908FA009D
:100208000B118B16A930BA000130BB008131972140
:100218000800803167208131813177218131803137
:10022800C52081318031E020813181313D2181310A
:100238008031F82008002900151D29291510770894
:10024800940076089300151408007708940076083F
:10025800930008002000181D382918107708970007
:100268007608960018140800770897007608960014
:1002780008008B1021001517AA302000BA000130A1
:10028800BB0081319D210B16080020001413330890
:10029800F7003208F60081311F2181318131612157
:1002A8000800200010103708F7003608F6008131E2
:1002B8002E21813181316C21080020003008310461
:1002C8000319080031088A0030080A008131080043
:1002D8002000340835040319080035088A0034085A
:1002E8000A0081310800603021009900980122003D
:1002F800960108000B117A08200095008031A9208A
:100308000800640080010131890B8629003420002F
:100318003B08B1003A08B000080020003B08B500CF
:100328003A08B400080020003B08B9003A08B800B1
:10033800080020003B08AF003A08AE0008008B1008
:0E03480080318A200800080008000800080024
:020000040001F9
:06000E00FC3FFF3F9F3F95
:00000001FF
