:1000000000008031372808007E14803120007F08EE
:10001000F2008B1A0B1D10288B31CA238031322835
:100020000B1A8B1C17288B31A223803132288B1995
:100030000B1C1E288B319F23803132280B1F322846
:100040002100141F2A282000141F2A288C310A247A
:10005000803132282100101C32282000101C322848
:100060008B31FE2372082000FF007E1009008031D2
:1000700039287C3084008D308500A0308600003027
:10008000870026308B31C4238031153084008D30B9
:100090008500203086000130870021308B31C42359
:1000A0008031F601F701F801F901FA0142308400CC
:1000B000003085001C308B31BE238031C630840077
:1000C0000030850020308B31BE237E10200085312A
:1000D000292D82302000B500DD30890B6D28B50B4D
:1000E0006D2800322000A0012030B5003508A100A5
:1000F000C6308E31252680312000B600B701360883
:10010000BE003708BF003E083F0403199628D230CE
:10011000A0000030A1000030A2009030A300073002
:10012000A4009030A5008B31D1238031AA3021006A
:100130004606031DD32A4A082000B500B601210057
:1001400049082000B700B8013708B800B7013508E2
:100150003707CB003608383DCC0021004E08200080
:10016000B500B60121004D082000B700B8013708DE
:10017000B800B70135083707CD003608383DCE0046
:10018000210052082000B500B601210051082000CE
:10019000B700B8013708B800B70135083707CF00F6
:1001A0003608383DD000210056082000B500B601C1
:1001B000210055082000B700B8013708B800B70182
:1001C0002100530854072000BA00BB01BB0D3708BB
:1001D0003A07BC0038083B3DBD0035083C07D3005A
:1001E00036083D3DD400D501D41BD5035508D600B3
:1001F00021005A082000B500B6012100590820004E
:10020000B700B8013708B800B70135083707D10083
:100210003608383DD2006430A4000030A5004C08F8
:10022000A3004B08A200E830A0000330A1008731F2
:10023000D327803120002108A7002008A6008D3197
:10024000F025803120002408303EB500350821001B
:10025000A2000A302000A4000030A5004C08A30032
:100260004B08A2006430A0000030A1008731D327E2
:10027000803120002108A7002008A6008D31F0253C
:10028000803120002408303EB50035082100A3004D
:100290000A302000A0000030A1004C08A3004B0849
:1002A000A2008731D327803120002008303EB500DE
:1002B00035082100A40064302000A4000030A5000F
:1002C0004E08A3004D08A200E830A0000330A100B2
:1002D0008731D327803120002108A7002008A600FD
:1002E0008D31F025803120002408303EB5003508DE
:1002F0002100A7000A302000A4000030A5004E080D
:10030000A3004D08A2006430A0000030A100873196
:10031000D327803120002108A7002008A6008D31B6
:10032000F025803120002408303EB500350821003A
:10033000A8000A302000A0000030A1004E08A30051
:100340004D08A2008731D327803120002008303E9D
:10035000B50035082100A90064302000A400003059
:10036000A5005008A3004F08A200E830A000033009
:10037000A1008731D327803120002108A700200861
:10038000A6008D31F025803120002408303EB500D4
:1003900035082100AC000A302000A4000030A50080
:1003A0005008A3004F08A2006430A0000030A10054
:1003B0008731D327803120002108A7002008A6001C
:1003C0008D31F025803120002408303EB5003508FD
:1003D0002100AD000A302000A0000030A10050082C
:1003E000A3004F08A2008731D327803120002008C6
:1003F000303EB50035082100AE0000302000AB00D3
:100400000030AA000030A9006430A8001130423E3C
:1004100086008701403FA400413FA500423FA6005F
:10042000433FA7000030A3000030A2000330A1002A
:10043000E830A0008E315D26803120002308AF0017
:100440002208AE002108AD002008AC008E31A026A5
:10045000803120002808303EB50035082100BD005D
:1004600000302000AB000030AA000030A9000A30A4
:10047000A8001130423E86008701403FA400413F62
:10048000A500423FA600433FA7000030A300003074
:10049000A2000030A1006430A0008E315D268031C2
:1004A00020002308AF002208AE002108AD0020087C
:1004B000AC008E31A026803120002808303EB500E7
:1004C00035082100BE0000302000A3000030A2004B
:1004D0000030A1000A30A0001130423E86008701A2
:1004E000403FA400413FA500423FA600433FA70074
:1004F0008E315D26803120002008303EB500350861
:100500002100BF0064302000A4000030A500520884
:10051000A3005108A200E830A0000330A1008731F9
:10052000D327803120002108A7002008A6008D31A4
:10053000F025803120002408303EB5003508210028
:10054000C2000A302000A4000030A5005208A30019
:100550005108A2006430A0000030A1008731D327E9
:10056000803120002108A7002008A6008D31F02549
:10057000803120002408303EB50035082100C3003A
:100580000A302000A0000030A1005208A30051084A
:10059000A2008731D32720002008303EB50035085F
:1005A0002100C400080000302000A000A10020307D
:1005B000A2000030A300C6308C31DC248031AA3088
:1005C0002000B50035082100C600C6302000B50067
:1005D0003508A5002030B6003608A60000308E3160
:1005E000F326803120003E083F0403190800FA304A
:1005F000A0000030A1000030A2009030A30007301E
:10060000A4009030A5008B31D12308006430200075
:10061000A4000030A5004C08A3004B08A200E8305D
:10062000A0000330A1008731D327833120002108A7
:10063000A7002008A6008D31F02583312000240872
:10064000303EB50035082100A2000A302000A40089
:100650000030A5004C08A3004B08A2006430A000A5
:100660000030A1008731D327833120002108A70063
:100670002008A6008D31F025833120002408303E6B
:10068000B50035082100A3000A302000A00000308A
:10069000A1004C08A3004B08A2008731D327833167
:1006A00020002008303EB50035082100A400643049
:1006B0002000A4000030A5004E08A3004D08A200B1
:1006C000E830A0000330A1008731D3278331200018
:1006D0002108A7002008A6008D31F02583312000D5
:1006E0002408303EB50035082100A7000A3020005C
:1006F000A4000030A5004E08A3004D08A2006430FD
:10070000A0000030A1008731D327833120002108C9
:10071000A7002008A6008D31F02583312000240891
:10072000303EB50035082100A8000A302000A000A6
:100730000030A1004E08A3004D08A2008731D32746
:10074000833120002008303EB50035082100A90083
:1007500064302000A4000030A5005008A3004F081A
:10076000A200E830A0000330A1008731D3278331F5
:1007700020002108A7002008A6008D31F025833134
:1007800020002408303EB50035082100AC000A30B6
:100790002000A4000030A5005008A3004F08A200CC
:1007A0006430A0000030A1008731D32783312000BE
:1007B0002108A7002008A6008D31F02583312000F4
:1007C0002408303EB50035082100AD000A30200075
:1007D000A0000030A1005008A3004F08A2008731FC
:1007E000D327833120002008303EB5003508210092
:1007F000AE0000302000AB000030AA000030A9009D
:100800006430A8001130423E86008701403FA400BA
:10081000413FA500423FA600433FA7000030A30090
:100820000030A2000330A100E830A0008E315D2628
:10083000833120002308AF002208AE002108AD005C
:100840002008AC008E31A026833120002808303EDD
:10085000B50035082100BD0000302000AB0000309D
:10086000AA000030A9000A30A8001130423E8600DC
:100870008701403FA400413FA500423FA600433FFF
:10088000A7000030A3000030A2000030A1006430B7
:10089000A0008E315D26833120002308AF0022089E
:1008A000AE002108AD002008AC008E31A0268331B7
:1008B00020002808303EB50035082100BE00003079
:1008C0002000A3000030A2000030A1000A30A000E8
:1008D0001130423E86008701403FA400413FA50001
:1008E000423FA600433FA7008E315D2683312000A2
:1008F0002008303EB50035082100BF0064302000DC
:10090000A4000030A5005208A3005108A200E8305E
:10091000A0000330A1008731D327833120002108B4
:10092000A7002008A6008D31F0258331200024087F
:10093000303EB50035082100C2000A302000A40076
:100940000030A5005208A3005108A2006430A000A6
:100950000030A1008731D327833120002108A70070
:100960002008A6008D31F025833120002408303E78
:10097000B50035082100C3000A302000A000003077
:10098000A1005208A3005108A2008731D327833168
:1009900020002008303EB50035082100C4002000AA
:1009A0004C08B50035082100C90020004B08B500EF
:1009B00035082100CA0020004E08B5003508210086
:1009C000CD0020004D08B50035082100CE002000E4
:1009D0005008B50035082100D10020004F08B500AF
:1009E00035082100D20020005308B5005408B60095
:1009F0005508B7005608B8000830B836B70CB60C22
:100A0000B50C890BFD2C3508B90039082100D5003B
:100A100020005308B50035082100D60020005208F8
:100A2000B50035082100D90020005108B50035086F
:100A30002100DA008B13C6302000B5003508A50070
:100A40002030B6003608A60000308E31F3268B1712
:100A500008008C31512485318C31F824853187315F
:100A60005A2785318031692085310030F300F40048
:100A700080302000C0004008F5008F314B278531C1
:100A8000A0302000A2000030A3008D313625853132
:100A900082302000C000DD30890B4C2DC00B4C2D66
:100AA00000320030F300F400C0302000C0004008E5
:100AB000F5008F314B278531BB302000A20000307C
:100AC000A3008D31362585318B170B1720005D086B
:100AD000031DDD018C18BB2D04302000C0003D300B
:100AE000890B702DC00B702D003220008C18C32D87
:100AF0000130D7070030D83D0030D93D0030DA3D15
:100B00005A08031D8C2D5908031D8C2D593057028E
:100B10000230583B031CB72D0130C0004008DB00F9
:100B20000030DA000030D9000030D8000030D700A3
:100B30000030F300F4008030C0004008F5008F3131
:100B40004B27853120302000A2000130A3008D31D9
:100B50003625853103302000C1008A30C000553071
:100B6000890BB02DC00BB02DC10BB02D0032200071
:100B7000C401C501C32D0030DA000030D9000030B7
:100B8000D8000030D7008C1C2E2E5B03031D2E2EA8
:100B9000DB010030A000A1002030A2000030A30043
:100BA000C6308C31DC248531AA302000C0004008DA
:100BB0002100C6008B13C6302000C0004008A500ED
:100BC0002030C1004108A60000308E31F326853167
:100BD0008B170030F300F40080302000C000400884
:100BE000F5008F314B27853132302000A2000130D3
:100BF000A3008D31362585310030F300F400C0307C
:100C00002000C0004008F5008F314B278531B030FF
:100C10002000A2000030A3008D313625853103303D
:100C20002000C1000830C0007730890B152EC00BA2
:100C3000152EC10B152E00302000D6000030D50037
:100C40000030D4000030D300D101D201CF01D00157
:100C5000CD01CE01CB01CC01C601C60A780803192B
:100C60004C2EF801031022000C1E0314031C3B2E13
:100C700022000C163D2E22000C1220004408031DF9
:100C80004C2E031022000C1E0314031C4A2E2200BB
:100C90008C164C2E22008C127A03031D5F2EFA0153
:100CA00020004403031D5F2E031022008C1E03143A
:100CB000031C5D2E22008C165F2E22008C12200059
:100CC00046080319662DC60183310623853100309D
:100CD000F300F40080302000C0004008F5008F31A0
:100CE0004B278531A0302000A2000030A3008D31B9
:100CF000362585310030F300F400C0302000C000FC
:100D00004008F5008F314B278531BB302000A20011
:100D10000030A3008D3136258531662D2000420834
:100D200003194308031908004203031DC02E0130B4
:100D3000C7070030C83D0030C93D0030CA3D4A08F1
:100D4000031DAB2E4908031DAB2EF53047020130C1
:100D5000483B031C0800C501C50AC401C40A013090
:100D6000D1070030D23D0030CA000030C900003049
:100D7000C8000030C700C301C201C601C60A08008E
:100D80004303031D0800C301C2014A08031DDB2EF3
:100D90004908031DDB2E4808031DDB2E6430470283
:100DA0000318DB2E0030CA000030C9000030C80034
:100DB0000030C7000800C601C60A4A08031DEA2E13
:100DC0004908031DEA2E4808031DEA2E8D3047020C
:100DD000031C0B2F4A08031D0B2F4908031D0B2F63
:100DE0001B3047020130483B03180B2F0130CD0761
:100DF0000030CE3D0130D3070030D43D0030D53D2A
:100E00000030D63D0030CA000030C9000030C800B4
:100E10000030C70008004A08031D172F4908031DAA
:100E2000172F1C3047020130483B031C382F4A085B
:100E3000031D382F4908031D382FA8304702013001
:100E4000483B0318382F0130CF070030D03D013028
:100E5000D3070030D43D0030D53D0030D63D0030C2
:100E6000CA000030C9000030C8000030C7000800C8
:100E70004A08031D08004908031D08004808031D0F
:100E800008008C304702031808000130CB070030FF
:100E9000CC3D0130D3070030D43D0030D53D00308B
:100EA000D63D0030CA000030C9000030C800003014
:100EB000C700080022000D138D138D128E100E1125
:100EC0008E110E128E120E138E1321302000A200EE
:100ED0007630890B692FA20B692F00000030F300D8
:100EE000F40038302000A2002208F5008F314B2793
:100EF000873121302000A2007630890B7D2FA20B94
:100F00007D2F00000030F300F40038302000A200F4
:100F10002208F5008F314B27873121302000A200B5
:100F20007630890B912FA20B912F00000030F30037
:100F3000F40038302000A2002208F5008F314B2742
:100F4000873121302000A2007630890BA52FA20B1B
:100F5000A52F00000030F300F40038302000A2007C
:100F60002208F5008F314B2787310030F300F40061
:100F70000F302000A2002208F5008F314B27873167
:100F80000030F300F400F501F50A8F314B2787316B
:100F90000030F300F40006302000A2002208F50023
:100FA0008F314B2708002000200821040319FB2F54
:100FB000F401F40AA11BE62F0130A035A10D890B25
:100FC000DD2F0130F3007308F407DA2F2108230224
:100FD000031DEC2F20082202031CF22F2008A2027E
:100FE0002108A33B0130A136A00C890BF32F01305F
:100FF000F402031DE62F2308A1002208A000080028
:10173C0008000800080008008B108D31A225080055
:10174C0074082100E7007308E60008007408200004
:10175C00E7007308E600080074082000E300730833
:10176C00E200080074082000DF007308DE000800A7
:10177C00640080010131890BBF2B0034FE00120084
:10178C001E00FE0BC52B00340B11200068089500C1
:10179C008C31C0240800F03021008E0020000E088F
:1017AC008E000800603021009900980122009601FB
:1017BC000800230055309600AA30960095140000BE
:1017CC000000080020006208630403190800630885
:1017DC008A0062080A008B3108008B102100151753
:1017EC009E30F3000B30F4008B31A6230B1608004F
:1017FC00200010106508F1006408F0008C312424DE
:10180C008B318B31E8230800200014136108F100A0
:10181C006008F0008C3133248C318C311624080094
:10182C0086318E268C3120005E085F040319080077
:10183C005F088A005E080A008C3108002000181D21
:10184C002E2C1810710897007008960018140800B8
:10185C00710897007008960008002900151D3D2C92
:10186C001510710894007008930015140800710885
:10187C009400700893000800740823009200730809
:10188C009100151315140000000023001408F40037
:10189C001308F30008008D3158258C318B31D82377
:1018AC008C318C31A6248C318B31F3238C318C31DF
:1018BC008F248C318C316324080021001508C03929
:1018CC00173895009E30200095009E30F500750865
:1018DC00E8000B118B16A030F3000B30F4008B31A9
:1018EC00AC23080000308B1B0130F5008B137408FF
:1018FC0023009200730891001513151615158B31E2
:10190C00DF238C31230015117508031908008B1780
:10191C00080020009901FF309700FF30960017084F
:10192C00E5001608E400101021001014A130F3009B
:10193C000B30F4008B31B2230130200098000800EA
:10194C0029009601EC3094007830930014082000A4
:10195C00E100290013082000E000141321001417E3
:10196C000330F3000030F4008B31B823053029002C
:10197C00950008000130F0007008FA000130F0000A
:10198C007008F90706307902031CD12CF9010130DB
:10199C00F0007008F80020006608670403190800BE
:1019AC0067088A0066080A008C310800F500750883
:1019BC00F3007308F40001302000A2020030A33BB6
:1019CC00220A0319230A0319080020002008F30037
:1019DC00740886008701730881000130F3007308D6
:1019EC00F407E12C2000C401C501CF01D001CD01C9
:1019FC00CE01CB01CC010030D6000030D500003038
:101A0C00D4000030D3000030CA000030C9000030D0
:101A1C00C8000030C700C301C201C601080043342E
:101A2C006C3465346134723469346E346734203408
:101A3C00443461347434613420342E342E342E34D6
:101A4C0000344434613474346134203463346C3481
:101A5C0065346134723469346E3467342034003444
:101A6C0020002208860023088700010803190800BB
:101A7C000130F3000030F400200022088600230817
:101A8C0087000108A4002408F5008F314B278D3105
:101A9C0001302000A2070030A33DA630890B542D45
:101AAC000032362D023022008C00E0308D00FE30EA
:101ABC008E00053021008C0010308D0001308E001E
:101ACC00013023008E0010308D0011308C0024006A
:101ADC008D018C018E012100951725008C018D0143
:101AEC008E018B1502303C009000080053343A34C0
:101AFC003034303430344D343A3430343034303493
:101B0C004C343A34303430343034003463346F3441
:101B1C006D3470346C34653474346534643420340E
:101B2C0000345A343A3430343034303447343A3464
:101B3C0030343034303400340130F0007008200080
:101B4C00DD002100151FB32D20000C1DB32DC2018B
:101B5C00C20AC30121001513BE2D2100151BBE2D79
:101B6C0020000C19BE2DC201C301C30A2100151798
:101B7C002100660867040319080067088A006608D4
:101B8C000A008D31080000308B1B0130F3008B13E1
:101B9C00200021082300920020002008230091003F
:101BAC002000230823009400200022082300930027
:101BBC002000240C2300031C9512031895161513F2
:101BCC00151215158B31DF238D317308031908009D
:101BDC008B1708002000A901AA0124082504031969
:101BEC00202EA801A80AA51B052E0130A435A50D91
:101BFC00890BFC2D0130F5007508A807F92D013073
:101C0C00A935AA0D890B062E25082702031D102EB7
:101C1C0024082602031C172E2408A6022508A73B1D
:101C2C0029140130A536A40C890B182E0130A802FA
:101C3C00031D052E2A08A5002908A4000800200071
:101C4C00A6002008A200A3010530A235A30D890B24
:101C5C002B2E2208803EA4001F30233DA5002130EE
:101C6C00210203183D2E04302002031C582EFF3095
:101C7C0008002508F4002408F3008C3142248E312E
:101C8C0073082000A2002608860087012208810024
:101C9C000130A4070030A53D0130A2002208A607A0
:101CAC000130A1022108031D3F2E00300800200046
:101CBC0023082204210420040319972EF401F40AAA
:101CCC00A31B742E0130A035A10DA20DA30D890B01
:101CDC00692E0130F3007308F407662E23082702DF
:101CEC00031D822E22082602031D822E21082502A6
:101CFC00031D822E20082402031C8C2E2008A40213
:101D0C002108A53B2208A63B2308A73B0130A3369C
:101D1C00A20CA10CA00C890B8D2E0130F402031D1A
:101D2C00742E2708A3002608A2002508A100240869
:101D3C00A000080000302000B3000030B2000030DA
:101D4C00B1000030B0002B082A0429042804031920
:101D5C00EA2EB401B40AAB1BBF2E0130A835A90D75
:101D6C00AA0DAB0D890BB42E0130F5007508B40724
:101D7C00B12E0130B035B10DB20DB30D890BC02EA3
:101D8C002B082F02031DD42E2A082E02031DD42E3D
:101D9C0029082D02031DD42E28082C02031CDF2E2B
:101DAC002808AC022908AD3B2A08AE3B2B08AF3BF8
:101DBC0030140130AB36AA0CA90CA80C890BE02E00
:101DCC000130B402031DBF2E3308AB003208AA0049
:101DDC003108A9003008A80008002000A900290833
:101DEC00A700A8010530A735A80D890BF92E2708E7
:101DFC00803EAA001F30283DAB002130260203187C
:101E0C00080004302902031808002B08F4002A08E3
:101E1C00F3008C3178248E31023020002602031C12
:101E2C00372F20002B08A1002A08A00025088600C7
:101E3C0087010108A700A8012708A2002808A30011
:101E4C00A401A40A8D31C9258E3101302000A700D0
:101E5C002708A5070130AA070030AB3D0130A602C8
:101E6C00122F2B08A1002A08A00025088600870144
:101E7C000108A700A8012708A2002808A300A401B4
:101E8C008D31C9252300150808007508013920007B
:101E9C00A000A00EA00D22000D0820002006DF39A6
:101EAC00200622008D00753601392000A000A00DFF
:101EBC0022000E0820002006FD39200622008E008C
:101ECC0075082000A0000230A036890B6A2F20086C
:101EDC000139A100A10DA10D22000E082000210640
:101EEC00FB39210622008E0075082000A00003306B
:101EFC00A036890B7E2F20080139A100A10DA10D60
:101F0C00A10D22000E0820002106F739210622001F
:101F1C008E0075082000A0000430A036890B932F8A
:101F2C0020080139A100A10E22000E082000210674
:101F3C00EF39210622008E0075082000A000053024
:101F4C00A036890BA62F20080139A100A10EA10DE6
:101F5C0022000E0820002106DF39210622008E0007
:101F6C0075082000A0000630A036890BBA2F200877
:101F7C000139A100A10EA10DA10D22000E08200017
:101F8C002106BF39210622008E0075082000A00012
:101F9C000730A036890BCF2F20080139A100A10CE6
:101FAC00A10C22000E08200021067F3921062200F8
:101FBC008E007408803A2000A00080302002031D9F
:101FCC00E92F01307302031CEE2F22008D17F02F26
:101FDC0022008D130D17A630890BF22F0032220030
:101FEC000D1307302000A0007D30890BFB2FA00BB8
:101FFC00FB2F08006D34613469346E342E34633435
:10200C000034303420343D343D34203472340034C8
:020000040001F9
:06000E00FC3FFF3F9F3F95
:00000001FF
